{
  "_format": "hh-sol-artifact-1",
  "contractName": "DEX",
  "sourceName": "contracts/Contract.sol",
  "abi": [
    {
      "inputs": [
        {
          "internalType": "address",
          "name": "_token",
          "type": "address"
        },
        {
          "internalType": "address",
          "name": "_defaultAdmin",
          "type": "address"
        },
        {
          "internalType": "string",
          "name": "_name",
          "type": "string"
        },
        {
          "internalType": "string",
          "name": "_symbol",
          "type": "string"
        }
      ],
      "stateMutability": "nonpayable",
      "type": "constructor"
    },
    {
      "inputs": [],
      "name": "ContractMetadataUnauthorized",
      "type": "error"
    },
    {
      "inputs": [],
      "name": "OwnableUnauthorized",
      "type": "error"
    },
    {
      "anonymous": false,
      "inputs": [
        {
          "indexed": true,
          "internalType": "address",
          "name": "owner",
          "type": "address"
        },
        {
          "indexed": true,
          "internalType": "address",
          "name": "spender",
          "type": "address"
        },
        {
          "indexed": false,
          "internalType": "uint256",
          "name": "value",
          "type": "uint256"
        }
      ],
      "name": "Approval",
      "type": "event"
    },
    {
      "anonymous": false,
      "inputs": [
        {
          "indexed": false,
          "internalType": "string",
          "name": "prevURI",
          "type": "string"
        },
        {
          "indexed": false,
          "internalType": "string",
          "name": "newURI",
          "type": "string"
        }
      ],
      "name": "ContractURIUpdated",
      "type": "event"
    },
    {
      "anonymous": false,
      "inputs": [
        {
          "indexed": true,
          "internalType": "address",
          "name": "prevOwner",
          "type": "address"
        },
        {
          "indexed": true,
          "internalType": "address",
          "name": "newOwner",
          "type": "address"
        }
      ],
      "name": "OwnerUpdated",
      "type": "event"
    },
    {
      "anonymous": false,
      "inputs": [
        {
          "indexed": true,
          "internalType": "address",
          "name": "mintedTo",
          "type": "address"
        },
        {
          "indexed": false,
          "internalType": "uint256",
          "name": "quantityMinted",
          "type": "uint256"
        }
      ],
      "name": "TokensMinted",
      "type": "event"
    },
    {
      "anonymous": false,
      "inputs": [
        {
          "indexed": true,
          "internalType": "address",
          "name": "from",
          "type": "address"
        },
        {
          "indexed": true,
          "internalType": "address",
          "name": "to",
          "type": "address"
        },
        {
          "indexed": false,
          "internalType": "uint256",
          "name": "value",
          "type": "uint256"
        }
      ],
      "name": "Transfer",
      "type": "event"
    },
    {
      "inputs": [],
      "name": "DOMAIN_SEPARATOR",
      "outputs": [
        {
          "internalType": "bytes32",
          "name": "",
          "type": "bytes32"
        }
      ],
      "stateMutability": "view",
      "type": "function"
    },
    {
      "inputs": [
        {
          "internalType": "uint256",
          "name": "_amount",
          "type": "uint256"
        }
      ],
      "name": "addLiquidity",
      "outputs": [
        {
          "internalType": "uint256",
          "name": "",
          "type": "uint256"
        }
      ],
      "stateMutability": "payable",
      "type": "function"
    },
    {
      "inputs": [
        {
          "internalType": "address",
          "name": "owner",
          "type": "address"
        },
        {
          "internalType": "address",
          "name": "spender",
          "type": "address"
        }
      ],
      "name": "allowance",
      "outputs": [
        {
          "internalType": "uint256",
          "name": "",
          "type": "uint256"
        }
      ],
      "stateMutability": "view",
      "type": "function"
    },
    {
      "inputs": [
        {
          "internalType": "address",
          "name": "spender",
          "type": "address"
        },
        {
          "internalType": "uint256",
          "name": "amount",
          "type": "uint256"
        }
      ],
      "name": "approve",
      "outputs": [
        {
          "internalType": "bool",
          "name": "",
          "type": "bool"
        }
      ],
      "stateMutability": "nonpayable",
      "type": "function"
    },
    {
      "inputs": [
        {
          "internalType": "address",
          "name": "account",
          "type": "address"
        }
      ],
      "name": "balanceOf",
      "outputs": [
        {
          "internalType": "uint256",
          "name": "",
          "type": "uint256"
        }
      ],
      "stateMutability": "view",
      "type": "function"
    },
    {
      "inputs": [
        {
          "internalType": "uint256",
          "name": "_amount",
          "type": "uint256"
        }
      ],
      "name": "burn",
      "outputs": [],
      "stateMutability": "nonpayable",
      "type": "function"
    },
    {
      "inputs": [
        {
          "internalType": "address",
          "name": "_account",
          "type": "address"
        },
        {
          "internalType": "uint256",
          "name": "_amount",
          "type": "uint256"
        }
      ],
      "name": "burnFrom",
      "outputs": [],
      "stateMutability": "nonpayable",
      "type": "function"
    },
    {
      "inputs": [],
      "name": "contractURI",
      "outputs": [
        {
          "internalType": "string",
          "name": "",
          "type": "string"
        }
      ],
      "stateMutability": "view",
      "type": "function"
    },
    {
      "inputs": [],
      "name": "decimals",
      "outputs": [
        {
          "internalType": "uint8",
          "name": "",
          "type": "uint8"
        }
      ],
      "stateMutability": "view",
      "type": "function"
    },
    {
      "inputs": [
        {
          "internalType": "address",
          "name": "spender",
          "type": "address"
        },
        {
          "internalType": "uint256",
          "name": "subtractedValue",
          "type": "uint256"
        }
      ],
      "name": "decreaseAllowance",
      "outputs": [
        {
          "internalType": "bool",
          "name": "",
          "type": "bool"
        }
      ],
      "stateMutability": "nonpayable",
      "type": "function"
    },
    {
      "inputs": [
        {
          "internalType": "uint256",
          "name": "inputAmount",
          "type": "uint256"
        },
        {
          "internalType": "uint256",
          "name": "inputReserve",
          "type": "uint256"
        },
        {
          "internalType": "uint256",
          "name": "outputReserve",
          "type": "uint256"
        }
      ],
      "name": "getAmountOfTokens",
      "outputs": [
        {
          "internalType": "uint256",
          "name": "",
          "type": "uint256"
        }
      ],
      "stateMutability": "pure",
      "type": "function"
    },
    {
      "inputs": [],
      "name": "getTokensInContract",
      "outputs": [
        {
          "internalType": "uint256",
          "name": "",
          "type": "uint256"
        }
      ],
      "stateMutability": "view",
      "type": "function"
    },
    {
      "inputs": [
        {
          "internalType": "address",
          "name": "spender",
          "type": "address"
        },
        {
          "internalType": "uint256",
          "name": "addedValue",
          "type": "uint256"
        }
      ],
      "name": "increaseAllowance",
      "outputs": [
        {
          "internalType": "bool",
          "name": "",
          "type": "bool"
        }
      ],
      "stateMutability": "nonpayable",
      "type": "function"
    },
    {
      "inputs": [
        {
          "internalType": "address",
          "name": "_to",
          "type": "address"
        },
        {
          "internalType": "uint256",
          "name": "_amount",
          "type": "uint256"
        }
      ],
      "name": "mintTo",
      "outputs": [],
      "stateMutability": "nonpayable",
      "type": "function"
    },
    {
      "inputs": [
        {
          "internalType": "bytes[]",
          "name": "data",
          "type": "bytes[]"
        }
      ],
      "name": "multicall",
      "outputs": [
        {
          "internalType": "bytes[]",
          "name": "results",
          "type": "bytes[]"
        }
      ],
      "stateMutability": "nonpayable",
      "type": "function"
    },
    {
      "inputs": [],
      "name": "name",
      "outputs": [
        {
          "internalType": "string",
          "name": "",
          "type": "string"
        }
      ],
      "stateMutability": "view",
      "type": "function"
    },
    {
      "inputs": [
        {
          "internalType": "address",
          "name": "owner",
          "type": "address"
        }
      ],
      "name": "nonces",
      "outputs": [
        {
          "internalType": "uint256",
          "name": "",
          "type": "uint256"
        }
      ],
      "stateMutability": "view",
      "type": "function"
    },
    {
      "inputs": [],
      "name": "owner",
      "outputs": [
        {
          "internalType": "address",
          "name": "",
          "type": "address"
        }
      ],
      "stateMutability": "view",
      "type": "function"
    },
    {
      "inputs": [
        {
          "internalType": "address",
          "name": "owner",
          "type": "address"
        },
        {
          "internalType": "address",
          "name": "spender",
          "type": "address"
        },
        {
          "internalType": "uint256",
          "name": "value",
          "type": "uint256"
        },
        {
          "internalType": "uint256",
          "name": "deadline",
          "type": "uint256"
        },
        {
          "internalType": "uint8",
          "name": "v",
          "type": "uint8"
        },
        {
          "internalType": "bytes32",
          "name": "r",
          "type": "bytes32"
        },
        {
          "internalType": "bytes32",
          "name": "s",
          "type": "bytes32"
        }
      ],
      "name": "permit",
      "outputs": [],
      "stateMutability": "nonpayable",
      "type": "function"
    },
    {
      "inputs": [
        {
          "internalType": "uint256",
          "name": "_amount",
          "type": "uint256"
        }
      ],
      "name": "removeLiquidity",
      "outputs": [
        {
          "internalType": "uint256",
          "name": "",
          "type": "uint256"
        },
        {
          "internalType": "uint256",
          "name": "",
          "type": "uint256"
        }
      ],
      "stateMutability": "nonpayable",
      "type": "function"
    },
    {
      "inputs": [
        {
          "internalType": "string",
          "name": "_uri",
          "type": "string"
        }
      ],
      "name": "setContractURI",
      "outputs": [],
      "stateMutability": "nonpayable",
      "type": "function"
    },
    {
      "inputs": [
        {
          "internalType": "address",
          "name": "_newOwner",
          "type": "address"
        }
      ],
      "name": "setOwner",
      "outputs": [],
      "stateMutability": "nonpayable",
      "type": "function"
    },
    {
      "inputs": [],
      "name": "swapEthTotoken",
      "outputs": [],
      "stateMutability": "payable",
      "type": "function"
    },
    {
      "inputs": [
        {
          "internalType": "uint256",
          "name": "_tokensSold",
          "type": "uint256"
        }
      ],
      "name": "swapTokenToEth",
      "outputs": [],
      "stateMutability": "nonpayable",
      "type": "function"
    },
    {
      "inputs": [],
      "name": "symbol",
      "outputs": [
        {
          "internalType": "string",
          "name": "",
          "type": "string"
        }
      ],
      "stateMutability": "view",
      "type": "function"
    },
    {
      "inputs": [],
      "name": "token",
      "outputs": [
        {
          "internalType": "address",
          "name": "",
          "type": "address"
        }
      ],
      "stateMutability": "view",
      "type": "function"
    },
    {
      "inputs": [],
      "name": "totalSupply",
      "outputs": [
        {
          "internalType": "uint256",
          "name": "",
          "type": "uint256"
        }
      ],
      "stateMutability": "view",
      "type": "function"
    },
    {
      "inputs": [
        {
          "internalType": "address",
          "name": "to",
          "type": "address"
        },
        {
          "internalType": "uint256",
          "name": "amount",
          "type": "uint256"
        }
      ],
      "name": "transfer",
      "outputs": [
        {
          "internalType": "bool",
          "name": "",
          "type": "bool"
        }
      ],
      "stateMutability": "nonpayable",
      "type": "function"
    },
    {
      "inputs": [
        {
          "internalType": "address",
          "name": "from",
          "type": "address"
        },
        {
          "internalType": "address",
          "name": "to",
          "type": "address"
        },
        {
          "internalType": "uint256",
          "name": "amount",
          "type": "uint256"
        }
      ],
      "name": "transferFrom",
      "outputs": [
        {
          "internalType": "bool",
          "name": "",
          "type": "bool"
        }
      ],
      "stateMutability": "nonpayable",
      "type": "function"
    }
  ],
  "bytecode": "0x6101006040527f6e71edae12b1b97f4d1f60370fef10105fa2faae0126114a169c64845d6126c960e0523480156200003657600080fd5b5060405162002b1738038062002b17833981016040819052620000599162000336565b8282828181818160056200006e838262000455565b5060066200007d828262000455565b50504660a052503060c05262000092620000d1565b60805250620000a390508362000168565b5050600880546001600160a01b0319166001600160a01b039690961695909517909455506200052192505050565b60007f8b73c3c69bb8fe3d512ecc4cf759cc79239f7b179b0ffacaa9a75d522b39400f620000fe620001ba565b80516020918201206040805192830193909352918101919091527fc89efdaa54c0f20c7adf612882df0950f5a951637e0307cdcb4c672f298b8bc660608201524660808201523060a082015260c00160405160208183030381529060405280519060200120905090565b600180546001600160a01b038381166001600160a01b0319831681179093556040519116919082907f8292fce18fa69edf4db7b94ea2e58241df0ae57f97e0a6c9b29067028bf92d7690600090a35050565b606060058054620001cb90620003c6565b80601f0160208091040260200160405190810160405280929190818152602001828054620001f990620003c6565b80156200024a5780601f106200021e576101008083540402835291602001916200024a565b820191906000526020600020905b8154815290600101906020018083116200022c57829003601f168201915b5050505050905090565b80516001600160a01b03811681146200026c57600080fd5b919050565b634e487b7160e01b600052604160045260246000fd5b600082601f8301126200029957600080fd5b81516001600160401b0380821115620002b657620002b662000271565b604051601f8301601f19908116603f01168101908282118183101715620002e157620002e162000271565b81604052838152602092508683858801011115620002fe57600080fd5b600091505b8382101562000322578582018301518183018401529082019062000303565b600093810190920192909252949350505050565b600080600080608085870312156200034d57600080fd5b620003588562000254565b9350620003686020860162000254565b60408601519093506001600160401b03808211156200038657600080fd5b620003948883890162000287565b93506060870151915080821115620003ab57600080fd5b50620003ba8782880162000287565b91505092959194509250565b600181811c90821680620003db57607f821691505b602082108103620003fc57634e487b7160e01b600052602260045260246000fd5b50919050565b601f8211156200045057600081815260208120601f850160051c810160208610156200042b5750805b601f850160051c820191505b818110156200044c5782815560010162000437565b5050505b505050565b81516001600160401b0381111562000471576200047162000271565b6200048981620004828454620003c6565b8462000402565b602080601f831160018114620004c15760008415620004a85750858301515b600019600386901b1c1916600185901b1785556200044c565b600085815260208120601f198616915b82811015620004f257888601518255948401946001909101908401620004d1565b5085821015620005115787850151600019600388901b60f8161c191681555b5050505050600190811b01905550565b60805160a05160c05160e0516125bc6200055b60003960006111bc0152600061071a015260006107440152600061076e01526125bc6000f3fe6080604052600436106101c25760003560e01c80637386479e116100f7578063a457c2d711610095578063d505accf11610064578063d505accf14610503578063dd62ed3e14610523578063e8a3d48514610543578063fc0c546a1461055857600080fd5b8063a457c2d714610476578063a9059cbb14610496578063ac9650d8146104b6578063c722ecc4146104e357600080fd5b80638da5cb5b116100d15780638da5cb5b146103da578063938e3d7b1461040c57806395d89b411461042c5780639c8f9f231461044157600080fd5b80637386479e1461037a57806379cc67901461039a5780637ecebe00146103ba57600080fd5b80633644e5151161016457806342966c681161013e57806342966c68146102f1578063449a52f81461031157806351c6590a1461033157806370a082311461034457600080fd5b80633644e515146102a757806339509351146102bc5780633c2f1806146102dc57600080fd5b806318160ddd116101a057806318160ddd1461024457806323b872dd14610263578063313ce567146102835780633575745d1461029f57600080fd5b806306fdde03146101c7578063095ea7b3146101f257806313af403514610222575b600080fd5b3480156101d357600080fd5b506101dc610578565b6040516101e99190611f1b565b60405180910390f35b3480156101fe57600080fd5b5061021261020d366004611f4a565b61060a565b60405190151581526020016101e9565b34801561022e57600080fd5b5061024261023d366004611f74565b610624565b005b34801561025057600080fd5b506004545b6040519081526020016101e9565b34801561026f57600080fd5b5061021261027e366004611f8f565b610655565b34801561028f57600080fd5b50604051601281526020016101e9565b610242610679565b3480156102b357600080fd5b5061025561070d565b3480156102c857600080fd5b506102126102d7366004611f4a565b61079d565b3480156102e857600080fd5b506102556107dc565b3480156102fd57600080fd5b5061024261030c366004611fcb565b610849565b34801561031d57600080fd5b5061024261032c366004611f4a565b6108ac565b61025561033f366004611fcb565b610955565b34801561035057600080fd5b5061025561035f366004611f74565b6001600160a01b031660009081526002602052604090205490565b34801561038657600080fd5b50610255610395366004611fe4565b610b46565b3480156103a657600080fd5b506102426103b5366004611f4a565b610bda565b3480156103c657600080fd5b506102556103d5366004611f74565b610ccb565b3480156103e657600080fd5b506001546001600160a01b03165b6040516001600160a01b0390911681526020016101e9565b34801561041857600080fd5b50610242610427366004612026565b610ce9565b34801561043857600080fd5b506101dc610d17565b34801561044d57600080fd5b5061046161045c366004611fcb565b610d26565b604080519283526020830191909152016101e9565b34801561048257600080fd5b50610212610491366004611f4a565b610e8f565b3480156104a257600080fd5b506102126104b1366004611f4a565b610f21565b3480156104c257600080fd5b506104d66104d13660046120d7565b610f2f565b6040516101e9919061214c565b3480156104ef57600080fd5b506102426104fe366004611fcb565b61109f565b34801561050f57600080fd5b5061024261051e3660046121ae565b611168565b34801561052f57600080fd5b5061025561053e366004612221565b6112ee565b34801561054f57600080fd5b506101dc611319565b34801561056457600080fd5b506008546103f4906001600160a01b031681565b60606005805461058790612254565b80601f01602080910402602001604051908101604052809291908181526020018280546105b390612254565b80156106005780601f106105d557610100808354040283529160200191610600565b820191906000526020600020905b8154815290600101906020018083116105e357829003601f168201915b5050505050905090565b6000336106188185856113a7565b60019150505b92915050565b61062c6114cb565b610649576040516316ccb9cb60e11b815260040160405180910390fd5b610652816114f8565b50565b60003361066385828561154a565b61066e8585856115be565b506001949350505050565b60006106836107dc565b90506000610692344784610b46565b60085460405163a9059cbb60e01b8152336004820152602481018390529192506001600160a01b03169063a9059cbb906044016020604051808303816000875af11580156106e4573d6000803e3d6000fd5b505050506040513d601f19601f820116820180604052508101906107089190612288565b505050565b6000306001600160a01b037f00000000000000000000000000000000000000000000000000000000000000001614801561076657507f000000000000000000000000000000000000000000000000000000000000000046145b1561079057507f000000000000000000000000000000000000000000000000000000000000000090565b61079861178c565b905090565b3360008181526003602090815260408083206001600160a01b038716845290915281205490919061061890829086906107d79087906122c0565b6113a7565b6008546040516370a0823160e01b81523060048201526000916001600160a01b0316906370a0823190602401602060405180830381865afa158015610825573d6000803e3d6000fd5b505050506040513d601f19601f8201168201806040525081019061079891906122d3565b336000908152600260205260409020548111156108a25760405162461bcd60e51b81526020600482015260126024820152716e6f7420656e6f7567682062616c616e636560701b60448201526064015b60405180910390fd5b6106523382611821565b6108b46114cb565b6109005760405162461bcd60e51b815260206004820152601760248201527f4e6f7420617574686f72697a656420746f206d696e742e0000000000000000006044820152606401610899565b806000036109475760405162461bcd60e51b815260206004820152601460248201527326b4b73a34b733903d32b937903a37b5b2b7399760611b6044820152606401610899565b610951828261196f565b5050565b60008047816109626107dc565b6008549091506001600160a01b03166000829003610a04576040516323b872dd60e01b8152336004820152306024820152604481018790526001600160a01b038216906323b872dd906064016020604051808303816000875af11580156109cd573d6000803e3d6000fd5b505050506040513d601f19601f820116820180604052508101906109f19190612288565b508293506109ff338761196f565b610b3c565b6000610a1034856122ec565b905080610a1d84346122ff565b610a27919061232c565b871015610a9c5760405162461bcd60e51b815260206004820152603e60248201527f416d6f756e74206f6620746f6b656e732073656e74206973206c65737320746860448201527f616e20746865206d696e696d756d20746f6b656e7320726571756972656400006064820152608401610899565b6040516323b872dd60e01b8152336004820152306024820152604481018890526001600160a01b038316906323b872dd906064016020604051808303816000875af1158015610aef573d6000803e3d6000fd5b505050506040513d601f19601f82011682018060405250810190610b139190612288565b508034610b1f60045490565b0281610b2d57610b2d612316565b049450610b3a338661196f565b505b5091949350505050565b60008083118015610b575750600082115b610b965760405162461bcd60e51b815260206004820152601060248201526f496e76616c696420526573657276657360801b6044820152606401610899565b836000610ba384836122ff565b9050600082610bb38760646122ff565b610bbd91906122c0565b9050808281610bce57610bce612316565b04979650505050505050565b610be26114cb565b610c2e5760405162461bcd60e51b815260206004820152601760248201527f4e6f7420617574686f72697a656420746f206275726e2e0000000000000000006044820152606401610899565b80610c4e836001600160a01b031660009081526002602052604090205490565b1015610c915760405162461bcd60e51b81526020600482015260126024820152716e6f7420656e6f7567682062616c616e636560701b6044820152606401610899565b600081610c9e84336112ee565b610ca891906122ec565b9050610cb6833360006113a7565b610cc18333836113a7565b6107088383611821565b6001600160a01b03811660009081526007602052604081205461061e565b610cf16114cb565b610d0e57604051639f7f092560e01b815260040160405180910390fd5b61065281611a4e565b60606006805461058790612254565b60008060008311610d845760405162461bcd60e51b815260206004820152602260248201527f416d6f756e742073686f756c642062652067726561746572207468616e207a65604482015261726f60f01b6064820152608401610899565b476000610d9060045490565b90506000610d9d60045490565b610da787856122ff565b610db1919061232c565b905060008287610dbf6107dc565b610dc991906122ff565b610dd3919061232c565b9050610ddf3388611821565b604051339083156108fc029084906000818181858888f19350505050158015610e0c573d6000803e3d6000fd5b5060085460405163a9059cbb60e01b8152336004820152602481018390526001600160a01b039091169063a9059cbb906044016020604051808303816000875af1158015610e5e573d6000803e3d6000fd5b505050506040513d601f19601f82011682018060405250810190610e829190612288565b5090969095509350505050565b3360008181526003602090815260408083206001600160a01b038716845290915281205490919083811015610f145760405162461bcd60e51b815260206004820152602560248201527f45524332303a2064656372656173656420616c6c6f77616e63652062656c6f77604482015264207a65726f60d81b6064820152608401610899565b61066e82868684036113a7565b6000336106188185856115be565b60608167ffffffffffffffff811115610f4a57610f4a612010565b604051908082528060200260200182016040528015610f7d57816020015b6060815260200190600190039081610f685790505b509050336000805b8481101561109657811561100457610fe230878784818110610fa957610fa961234e565b9050602002810190610fbb9190612364565b86604051602001610fce939291906123b2565b604051602081830303815290604052611b29565b848281518110610ff457610ff461234e565b6020026020010181905250611084565b6110663087878481811061101a5761101a61234e565b905060200281019061102c9190612364565b8080601f016020809104026020016040519081016040528093929190818152602001838380828437600092019190915250611b2992505050565b8482815181106110785761107861234e565b60200260200101819052505b8061108e816123d8565b915050610f85565b50505092915050565b60006110a96107dc565b905060006110b8838347610b46565b6008546040516323b872dd60e01b8152336004820152306024820152604481018690529192506001600160a01b0316906323b872dd906064016020604051808303816000875af1158015611110573d6000803e3d6000fd5b505050506040513d601f19601f820116820180604052508101906111349190612288565b50604051339082156108fc029083906000818181858888f19350505050158015611162573d6000803e3d6000fd5b50505050565b834211156111b85760405162461bcd60e51b815260206004820152601d60248201527f45524332305065726d69743a206578706972656420646561646c696e650000006044820152606401610899565b60007f00000000000000000000000000000000000000000000000000000000000000008888886111e78c611b55565b6040805160208101969096526001600160a01b0394851690860152929091166060840152608083015260a082015260c0810186905260e001604051602081830303815290604052805190602001209050600061126461124461070d565b8360405161190160f01b8152600281019290925260228201526042902090565b9050600061127482878787611b7d565b9050896001600160a01b0316816001600160a01b0316146112d75760405162461bcd60e51b815260206004820152601e60248201527f45524332305065726d69743a20696e76616c6964207369676e617475726500006044820152606401610899565b6112e28a8a8a6113a7565b50505050505050505050565b6001600160a01b03918216600090815260036020908152604080832093909416825291909152205490565b6000805461132690612254565b80601f016020809104026020016040519081016040528092919081815260200182805461135290612254565b801561139f5780601f106113745761010080835404028352916020019161139f565b820191906000526020600020905b81548152906001019060200180831161138257829003601f168201915b505050505081565b6001600160a01b0383166114095760405162461bcd60e51b8152602060048201526024808201527f45524332303a20617070726f76652066726f6d20746865207a65726f206164646044820152637265737360e01b6064820152608401610899565b6001600160a01b03821661146a5760405162461bcd60e51b815260206004820152602260248201527f45524332303a20617070726f766520746f20746865207a65726f206164647265604482015261737360f01b6064820152608401610899565b6001600160a01b0383811660008181526003602090815260408083209487168084529482529182902085905590518481527f8c5be1e5ebec7d5bd14f71427d1e84f3dd0314c0f7b2291e5b200ac8c7c3b925910160405180910390a3505050565b60006114df6001546001600160a01b031690565b6001600160a01b0316336001600160a01b031614905090565b600180546001600160a01b038381166001600160a01b0319831681179093556040519116919082907f8292fce18fa69edf4db7b94ea2e58241df0ae57f97e0a6c9b29067028bf92d7690600090a35050565b600061155684846112ee565b9050600019811461116257818110156115b15760405162461bcd60e51b815260206004820152601d60248201527f45524332303a20696e73756666696369656e7420616c6c6f77616e63650000006044820152606401610899565b61116284848484036113a7565b6001600160a01b0383166116225760405162461bcd60e51b815260206004820152602560248201527f45524332303a207472616e736665722066726f6d20746865207a65726f206164604482015264647265737360d81b6064820152608401610899565b6001600160a01b0382166116845760405162461bcd60e51b815260206004820152602360248201527f45524332303a207472616e7366657220746f20746865207a65726f206164647260448201526265737360e81b6064820152608401610899565b6001600160a01b038316600090815260026020526040902054818110156116fc5760405162461bcd60e51b815260206004820152602660248201527f45524332303a207472616e7366657220616d6f756e7420657863656564732062604482015265616c616e636560d01b6064820152608401610899565b6001600160a01b038085166000908152600260205260408082208585039055918516815290812080548492906117339084906122c0565b92505081905550826001600160a01b0316846001600160a01b03167fddf252ad1be2c89b69c2b068fc378daa952ba7f163c4a11628f55a4df523b3ef8460405161177f91815260200190565b60405180910390a3611162565b60007f8b73c3c69bb8fe3d512ecc4cf759cc79239f7b179b0ffacaa9a75d522b39400f6117b7610578565b80516020918201206040805192830193909352918101919091527fc89efdaa54c0f20c7adf612882df0950f5a951637e0307cdcb4c672f298b8bc660608201524660808201523060a082015260c00160405160208183030381529060405280519060200120905090565b6001600160a01b0382166118815760405162461bcd60e51b815260206004820152602160248201527f45524332303a206275726e2066726f6d20746865207a65726f206164647265736044820152607360f81b6064820152608401610899565b6001600160a01b038216600090815260026020526040902054818110156118f55760405162461bcd60e51b815260206004820152602260248201527f45524332303a206275726e20616d6f756e7420657863656564732062616c616e604482015261636560f01b6064820152608401610899565b6001600160a01b03831660009081526002602052604081208383039055600480548492906119249084906122ec565b90915550506040518281526000906001600160a01b038516907fddf252ad1be2c89b69c2b068fc378daa952ba7f163c4a11628f55a4df523b3ef9060200160405180910390a3505050565b6001600160a01b0382166119c55760405162461bcd60e51b815260206004820152601f60248201527f45524332303a206d696e7420746f20746865207a65726f2061646472657373006044820152606401610899565b80600460008282546119d791906122c0565b90915550506001600160a01b03821660009081526002602052604081208054839290611a049084906122c0565b90915550506040518181526001600160a01b038316906000907fddf252ad1be2c89b69c2b068fc378daa952ba7f163c4a11628f55a4df523b3ef9060200160405180910390a35050565b6000808054611a5c90612254565b80601f0160208091040260200160405190810160405280929190818152602001828054611a8890612254565b8015611ad55780601f10611aaa57610100808354040283529160200191611ad5565b820191906000526020600020905b815481529060010190602001808311611ab857829003601f168201915b505050505090508160009081611aeb919061243f565b507fc9c7c3fe08b88b4df9d4d47ef47d2c43d55c025a0ba88ca442580ed9e7348a168183604051611b1d9291906124ff565b60405180910390a15050565b6060611b4e838360405180606001604052806027815260200161256060279139611ba7565b9392505050565b6001600160a01b03811660009081526007602052604090208054600181018255905b50919050565b6000806000611b8e87878787611c1f565b91509150611b9b81611ce3565b5090505b949350505050565b6060600080856001600160a01b031685604051611bc4919061252d565b600060405180830381855af49150503d8060008114611bff576040519150601f19603f3d011682016040523d82523d6000602084013e611c04565b606091505b5091509150611c1586838387611e2d565b9695505050505050565b6000807f7fffffffffffffffffffffffffffffff5d576e7357a4501ddfe92f46681b20a0831115611c565750600090506003611cda565b6040805160008082526020820180845289905260ff881692820192909252606081018690526080810185905260019060a0016020604051602081039080840390855afa158015611caa573d6000803e3d6000fd5b5050604051601f1901519150506001600160a01b038116611cd357600060019250925050611cda565b9150600090505b94509492505050565b6000816004811115611cf757611cf7612549565b03611cff5750565b6001816004811115611d1357611d13612549565b03611d605760405162461bcd60e51b815260206004820152601860248201527f45434453413a20696e76616c6964207369676e617475726500000000000000006044820152606401610899565b6002816004811115611d7457611d74612549565b03611dc15760405162461bcd60e51b815260206004820152601f60248201527f45434453413a20696e76616c6964207369676e6174757265206c656e677468006044820152606401610899565b6003816004811115611dd557611dd5612549565b036106525760405162461bcd60e51b815260206004820152602260248201527f45434453413a20696e76616c6964207369676e6174757265202773272076616c604482015261756560f01b6064820152608401610899565b60608315611e9c578251600003611e95576001600160a01b0385163b611e955760405162461bcd60e51b815260206004820152601d60248201527f416464726573733a2063616c6c20746f206e6f6e2d636f6e74726163740000006044820152606401610899565b5081611b9f565b611b9f8383815115611eb15781518083602001fd5b8060405162461bcd60e51b81526004016108999190611f1b565b60005b83811015611ee6578181015183820152602001611ece565b50506000910152565b60008151808452611f07816020860160208601611ecb565b601f01601f19169290920160200192915050565b602081526000611b4e6020830184611eef565b80356001600160a01b0381168114611f4557600080fd5b919050565b60008060408385031215611f5d57600080fd5b611f6683611f2e565b946020939093013593505050565b600060208284031215611f8657600080fd5b611b4e82611f2e565b600080600060608486031215611fa457600080fd5b611fad84611f2e565b9250611fbb60208501611f2e565b9150604084013590509250925092565b600060208284031215611fdd57600080fd5b5035919050565b600080600060608486031215611ff957600080fd5b505081359360208301359350604090920135919050565b634e487b7160e01b600052604160045260246000fd5b60006020828403121561203857600080fd5b813567ffffffffffffffff8082111561205057600080fd5b818401915084601f83011261206457600080fd5b81358181111561207657612076612010565b604051601f8201601f19908116603f0116810190838211818310171561209e5761209e612010565b816040528281528760208487010111156120b757600080fd5b826020860160208301376000928101602001929092525095945050505050565b600080602083850312156120ea57600080fd5b823567ffffffffffffffff8082111561210257600080fd5b818501915085601f83011261211657600080fd5b81358181111561212557600080fd5b8660208260051b850101111561213a57600080fd5b60209290920196919550909350505050565b6000602080830181845280855180835260408601915060408160051b870101925083870160005b828110156121a157603f1988860301845261218f858351611eef565b94509285019290850190600101612173565b5092979650505050505050565b600080600080600080600060e0888a0312156121c957600080fd5b6121d288611f2e565b96506121e060208901611f2e565b95506040880135945060608801359350608088013560ff8116811461220457600080fd5b9699959850939692959460a0840135945060c09093013592915050565b6000806040838503121561223457600080fd5b61223d83611f2e565b915061224b60208401611f2e565b90509250929050565b600181811c9082168061226857607f821691505b602082108103611b7757634e487b7160e01b600052602260045260246000fd5b60006020828403121561229a57600080fd5b81518015158114611b4e57600080fd5b634e487b7160e01b600052601160045260246000fd5b8082018082111561061e5761061e6122aa565b6000602082840312156122e557600080fd5b5051919050565b8181038181111561061e5761061e6122aa565b808202811582820484141761061e5761061e6122aa565b634e487b7160e01b600052601260045260246000fd5b60008261234957634e487b7160e01b600052601260045260246000fd5b500490565b634e487b7160e01b600052603260045260246000fd5b6000808335601e1984360301811261237b57600080fd5b83018035915067ffffffffffffffff82111561239657600080fd5b6020019150368190038213156123ab57600080fd5b9250929050565b8284823760609190911b6bffffffffffffffffffffffff19169101908152601401919050565b6000600182016123ea576123ea6122aa565b5060010190565b601f82111561070857600081815260208120601f850160051c810160208610156124185750805b601f850160051c820191505b8181101561243757828155600101612424565b505050505050565b815167ffffffffffffffff81111561245957612459612010565b61246d816124678454612254565b846123f1565b602080601f8311600181146124a2576000841561248a5750858301515b600019600386901b1c1916600185901b178555612437565b600085815260208120601f198616915b828110156124d1578886015182559484019460019091019084016124b2565b50858210156124ef5787850151600019600388901b60f8161c191681555b5050505050600190811b01905550565b6040815260006125126040830185611eef565b82810360208401526125248185611eef565b95945050505050565b6000825161253f818460208701611ecb565b9190910192915050565b634e487b7160e01b600052602160045260246000fdfe416464726573733a206c6f772d6c6576656c2064656c65676174652063616c6c206661696c6564a2646970667358221220c494a43c35f656822783f13e80a2550b9648ab4e0b68a6710b29c027387e18de64736f6c63430008110033",
  "linkReferences": {},
  "deployedLinkReferences": {}
}