{
  "_format": "hh-sol-artifact-1",
  "contractName": "ERC20Base",
  "sourceName": "@thirdweb-dev/contracts/base/ERC20Base.sol",
  "abi": [
    {
      "inputs": [
        {
          "internalType": "address",
          "name": "_defaultAdmin",
          "type": "address"
        },
        {
          "internalType": "string",
          "name": "_name",
          "type": "string"
        },
        {
          "internalType": "string",
          "name": "_symbol",
          "type": "string"
        }
      ],
      "stateMutability": "nonpayable",
      "type": "constructor"
    },
    {
      "inputs": [],
      "name": "ContractMetadataUnauthorized",
      "type": "error"
    },
    {
      "inputs": [],
      "name": "OwnableUnauthorized",
      "type": "error"
    },
    {
      "anonymous": false,
      "inputs": [
        {
          "indexed": true,
          "internalType": "address",
          "name": "owner",
          "type": "address"
        },
        {
          "indexed": true,
          "internalType": "address",
          "name": "spender",
          "type": "address"
        },
        {
          "indexed": false,
          "internalType": "uint256",
          "name": "value",
          "type": "uint256"
        }
      ],
      "name": "Approval",
      "type": "event"
    },
    {
      "anonymous": false,
      "inputs": [
        {
          "indexed": false,
          "internalType": "string",
          "name": "prevURI",
          "type": "string"
        },
        {
          "indexed": false,
          "internalType": "string",
          "name": "newURI",
          "type": "string"
        }
      ],
      "name": "ContractURIUpdated",
      "type": "event"
    },
    {
      "anonymous": false,
      "inputs": [
        {
          "indexed": true,
          "internalType": "address",
          "name": "prevOwner",
          "type": "address"
        },
        {
          "indexed": true,
          "internalType": "address",
          "name": "newOwner",
          "type": "address"
        }
      ],
      "name": "OwnerUpdated",
      "type": "event"
    },
    {
      "anonymous": false,
      "inputs": [
        {
          "indexed": true,
          "internalType": "address",
          "name": "mintedTo",
          "type": "address"
        },
        {
          "indexed": false,
          "internalType": "uint256",
          "name": "quantityMinted",
          "type": "uint256"
        }
      ],
      "name": "TokensMinted",
      "type": "event"
    },
    {
      "anonymous": false,
      "inputs": [
        {
          "indexed": true,
          "internalType": "address",
          "name": "from",
          "type": "address"
        },
        {
          "indexed": true,
          "internalType": "address",
          "name": "to",
          "type": "address"
        },
        {
          "indexed": false,
          "internalType": "uint256",
          "name": "value",
          "type": "uint256"
        }
      ],
      "name": "Transfer",
      "type": "event"
    },
    {
      "inputs": [],
      "name": "DOMAIN_SEPARATOR",
      "outputs": [
        {
          "internalType": "bytes32",
          "name": "",
          "type": "bytes32"
        }
      ],
      "stateMutability": "view",
      "type": "function"
    },
    {
      "inputs": [
        {
          "internalType": "address",
          "name": "owner",
          "type": "address"
        },
        {
          "internalType": "address",
          "name": "spender",
          "type": "address"
        }
      ],
      "name": "allowance",
      "outputs": [
        {
          "internalType": "uint256",
          "name": "",
          "type": "uint256"
        }
      ],
      "stateMutability": "view",
      "type": "function"
    },
    {
      "inputs": [
        {
          "internalType": "address",
          "name": "spender",
          "type": "address"
        },
        {
          "internalType": "uint256",
          "name": "amount",
          "type": "uint256"
        }
      ],
      "name": "approve",
      "outputs": [
        {
          "internalType": "bool",
          "name": "",
          "type": "bool"
        }
      ],
      "stateMutability": "nonpayable",
      "type": "function"
    },
    {
      "inputs": [
        {
          "internalType": "address",
          "name": "account",
          "type": "address"
        }
      ],
      "name": "balanceOf",
      "outputs": [
        {
          "internalType": "uint256",
          "name": "",
          "type": "uint256"
        }
      ],
      "stateMutability": "view",
      "type": "function"
    },
    {
      "inputs": [
        {
          "internalType": "uint256",
          "name": "_amount",
          "type": "uint256"
        }
      ],
      "name": "burn",
      "outputs": [],
      "stateMutability": "nonpayable",
      "type": "function"
    },
    {
      "inputs": [
        {
          "internalType": "address",
          "name": "_account",
          "type": "address"
        },
        {
          "internalType": "uint256",
          "name": "_amount",
          "type": "uint256"
        }
      ],
      "name": "burnFrom",
      "outputs": [],
      "stateMutability": "nonpayable",
      "type": "function"
    },
    {
      "inputs": [],
      "name": "contractURI",
      "outputs": [
        {
          "internalType": "string",
          "name": "",
          "type": "string"
        }
      ],
      "stateMutability": "view",
      "type": "function"
    },
    {
      "inputs": [],
      "name": "decimals",
      "outputs": [
        {
          "internalType": "uint8",
          "name": "",
          "type": "uint8"
        }
      ],
      "stateMutability": "view",
      "type": "function"
    },
    {
      "inputs": [
        {
          "internalType": "address",
          "name": "spender",
          "type": "address"
        },
        {
          "internalType": "uint256",
          "name": "subtractedValue",
          "type": "uint256"
        }
      ],
      "name": "decreaseAllowance",
      "outputs": [
        {
          "internalType": "bool",
          "name": "",
          "type": "bool"
        }
      ],
      "stateMutability": "nonpayable",
      "type": "function"
    },
    {
      "inputs": [
        {
          "internalType": "address",
          "name": "spender",
          "type": "address"
        },
        {
          "internalType": "uint256",
          "name": "addedValue",
          "type": "uint256"
        }
      ],
      "name": "increaseAllowance",
      "outputs": [
        {
          "internalType": "bool",
          "name": "",
          "type": "bool"
        }
      ],
      "stateMutability": "nonpayable",
      "type": "function"
    },
    {
      "inputs": [
        {
          "internalType": "address",
          "name": "_to",
          "type": "address"
        },
        {
          "internalType": "uint256",
          "name": "_amount",
          "type": "uint256"
        }
      ],
      "name": "mintTo",
      "outputs": [],
      "stateMutability": "nonpayable",
      "type": "function"
    },
    {
      "inputs": [
        {
          "internalType": "bytes[]",
          "name": "data",
          "type": "bytes[]"
        }
      ],
      "name": "multicall",
      "outputs": [
        {
          "internalType": "bytes[]",
          "name": "results",
          "type": "bytes[]"
        }
      ],
      "stateMutability": "nonpayable",
      "type": "function"
    },
    {
      "inputs": [],
      "name": "name",
      "outputs": [
        {
          "internalType": "string",
          "name": "",
          "type": "string"
        }
      ],
      "stateMutability": "view",
      "type": "function"
    },
    {
      "inputs": [
        {
          "internalType": "address",
          "name": "owner",
          "type": "address"
        }
      ],
      "name": "nonces",
      "outputs": [
        {
          "internalType": "uint256",
          "name": "",
          "type": "uint256"
        }
      ],
      "stateMutability": "view",
      "type": "function"
    },
    {
      "inputs": [],
      "name": "owner",
      "outputs": [
        {
          "internalType": "address",
          "name": "",
          "type": "address"
        }
      ],
      "stateMutability": "view",
      "type": "function"
    },
    {
      "inputs": [
        {
          "internalType": "address",
          "name": "owner",
          "type": "address"
        },
        {
          "internalType": "address",
          "name": "spender",
          "type": "address"
        },
        {
          "internalType": "uint256",
          "name": "value",
          "type": "uint256"
        },
        {
          "internalType": "uint256",
          "name": "deadline",
          "type": "uint256"
        },
        {
          "internalType": "uint8",
          "name": "v",
          "type": "uint8"
        },
        {
          "internalType": "bytes32",
          "name": "r",
          "type": "bytes32"
        },
        {
          "internalType": "bytes32",
          "name": "s",
          "type": "bytes32"
        }
      ],
      "name": "permit",
      "outputs": [],
      "stateMutability": "nonpayable",
      "type": "function"
    },
    {
      "inputs": [
        {
          "internalType": "string",
          "name": "_uri",
          "type": "string"
        }
      ],
      "name": "setContractURI",
      "outputs": [],
      "stateMutability": "nonpayable",
      "type": "function"
    },
    {
      "inputs": [
        {
          "internalType": "address",
          "name": "_newOwner",
          "type": "address"
        }
      ],
      "name": "setOwner",
      "outputs": [],
      "stateMutability": "nonpayable",
      "type": "function"
    },
    {
      "inputs": [],
      "name": "symbol",
      "outputs": [
        {
          "internalType": "string",
          "name": "",
          "type": "string"
        }
      ],
      "stateMutability": "view",
      "type": "function"
    },
    {
      "inputs": [],
      "name": "totalSupply",
      "outputs": [
        {
          "internalType": "uint256",
          "name": "",
          "type": "uint256"
        }
      ],
      "stateMutability": "view",
      "type": "function"
    },
    {
      "inputs": [
        {
          "internalType": "address",
          "name": "to",
          "type": "address"
        },
        {
          "internalType": "uint256",
          "name": "amount",
          "type": "uint256"
        }
      ],
      "name": "transfer",
      "outputs": [
        {
          "internalType": "bool",
          "name": "",
          "type": "bool"
        }
      ],
      "stateMutability": "nonpayable",
      "type": "function"
    },
    {
      "inputs": [
        {
          "internalType": "address",
          "name": "from",
          "type": "address"
        },
        {
          "internalType": "address",
          "name": "to",
          "type": "address"
        },
        {
          "internalType": "uint256",
          "name": "amount",
          "type": "uint256"
        }
      ],
      "name": "transferFrom",
      "outputs": [
        {
          "internalType": "bool",
          "name": "",
          "type": "bool"
        }
      ],
      "stateMutability": "nonpayable",
      "type": "function"
    }
  ],
  "bytecode": "0x6101006040527f6e71edae12b1b97f4d1f60370fef10105fa2faae0126114a169c64845d6126c960e0523480156200003657600080fd5b50604051620021fc380380620021fc8339810160408190526200005991620002f1565b8181818160056200006b83826200040a565b5060066200007a82826200040a565b50504660a052503060c0526200008f620000a9565b60805250620000a090508362000140565b505050620004d6565b60007f8b73c3c69bb8fe3d512ecc4cf759cc79239f7b179b0ffacaa9a75d522b39400f620000d662000192565b80516020918201206040805192830193909352918101919091527fc89efdaa54c0f20c7adf612882df0950f5a951637e0307cdcb4c672f298b8bc660608201524660808201523060a082015260c00160405160208183030381529060405280519060200120905090565b600180546001600160a01b038381166001600160a01b0319831681179093556040519116919082907f8292fce18fa69edf4db7b94ea2e58241df0ae57f97e0a6c9b29067028bf92d7690600090a35050565b606060058054620001a3906200037b565b80601f0160208091040260200160405190810160405280929190818152602001828054620001d1906200037b565b8015620002225780601f10620001f65761010080835404028352916020019162000222565b820191906000526020600020905b8154815290600101906020018083116200020457829003601f168201915b5050505050905090565b634e487b7160e01b600052604160045260246000fd5b600082601f8301126200025457600080fd5b81516001600160401b03808211156200027157620002716200022c565b604051601f8301601f19908116603f011681019082821181831017156200029c576200029c6200022c565b81604052838152602092508683858801011115620002b957600080fd5b600091505b83821015620002dd5785820183015181830184015290820190620002be565b600093810190920192909252949350505050565b6000806000606084860312156200030757600080fd5b83516001600160a01b03811681146200031f57600080fd5b60208501519093506001600160401b03808211156200033d57600080fd5b6200034b8783880162000242565b935060408601519150808211156200036257600080fd5b50620003718682870162000242565b9150509250925092565b600181811c908216806200039057607f821691505b602082108103620003b157634e487b7160e01b600052602260045260246000fd5b50919050565b601f8211156200040557600081815260208120601f850160051c81016020861015620003e05750805b601f850160051c820191505b818110156200040157828155600101620003ec565b5050505b505050565b81516001600160401b038111156200042657620004266200022c565b6200043e816200043784546200037b565b84620003b7565b602080601f8311600181146200047657600084156200045d5750858301515b600019600386901b1c1916600185901b17855562000401565b600085815260208120601f198616915b82811015620004a75788860151825594840194600190910190840162000486565b5085821015620004c65787850151600019600388901b60f8161c191681555b5050505050600190811b01905550565b60805160a05160c05160e051611cec62000510600039600061099c01526000610419015260006104430152600061046d0152611cec6000f3fe608060405234801561001057600080fd5b50600436106101425760003560e01c806379cc6790116100b8578063a457c2d71161007c578063a457c2d714610297578063a9059cbb146102aa578063ac9650d8146102bd578063d505accf146102dd578063dd62ed3e146102f0578063e8a3d4851461030357600080fd5b806379cc67901461023b5780637ecebe001461024e5780638da5cb5b14610261578063938e3d7b1461027c57806395d89b411461028f57600080fd5b8063313ce5671161010a578063313ce567146101c25780633644e515146101d157806339509351146101d957806342966c68146101ec578063449a52f8146101ff57806370a082311461021257600080fd5b806306fdde0314610147578063095ea7b31461016557806313af40351461018857806318160ddd1461019d57806323b872dd146101af575b600080fd5b61014f61030b565b60405161015c9190611701565b60405180910390f35b610178610173366004611730565b61039d565b604051901515815260200161015c565b61019b61019636600461175a565b6103b7565b005b6004545b60405190815260200161015c565b6101786101bd366004611775565b6103e8565b6040516012815260200161015c565b6101a161040c565b6101786101e7366004611730565b61049c565b61019b6101fa3660046117b1565b6104db565b61019b61020d366004611730565b61053e565b6101a161022036600461175a565b6001600160a01b031660009081526002602052604090205490565b61019b610249366004611730565b6105e7565b6101a161025c36600461175a565b6106dd565b6001546040516001600160a01b03909116815260200161015c565b61019b61028a3660046117e0565b6106fb565b61014f610729565b6101786102a5366004611730565b610738565b6101786102b8366004611730565b6107ca565b6102d06102cb366004611891565b6107d8565b60405161015c9190611906565b61019b6102eb366004611968565b610948565b6101a16102fe3660046119db565b610ace565b61014f610af9565b60606005805461031a90611a0e565b80601f016020809104026020016040519081016040528092919081815260200182805461034690611a0e565b80156103935780601f1061036857610100808354040283529160200191610393565b820191906000526020600020905b81548152906001019060200180831161037657829003601f168201915b5050505050905090565b6000336103ab818585610b87565b60019150505b92915050565b6103bf610cab565b6103dc576040516316ccb9cb60e11b815260040160405180910390fd5b6103e581610cd8565b50565b6000336103f6858285610d2a565b610401858585610da4565b506001949350505050565b6000306001600160a01b037f00000000000000000000000000000000000000000000000000000000000000001614801561046557507f000000000000000000000000000000000000000000000000000000000000000046145b1561048f57507f000000000000000000000000000000000000000000000000000000000000000090565b610497610f72565b905090565b3360008181526003602090815260408083206001600160a01b03871684529091528120549091906103ab90829086906104d6908790611a58565b610b87565b336000908152600260205260409020548111156105345760405162461bcd60e51b81526020600482015260126024820152716e6f7420656e6f7567682062616c616e636560701b60448201526064015b60405180910390fd5b6103e53382611007565b610546610cab565b6105925760405162461bcd60e51b815260206004820152601760248201527f4e6f7420617574686f72697a656420746f206d696e742e000000000000000000604482015260640161052b565b806000036105d95760405162461bcd60e51b815260206004820152601460248201527326b4b73a34b733903d32b937903a37b5b2b7399760611b604482015260640161052b565b6105e38282611155565b5050565b6105ef610cab565b61063b5760405162461bcd60e51b815260206004820152601760248201527f4e6f7420617574686f72697a656420746f206275726e2e000000000000000000604482015260640161052b565b8061065b836001600160a01b031660009081526002602052604090205490565b101561069e5760405162461bcd60e51b81526020600482015260126024820152716e6f7420656e6f7567682062616c616e636560701b604482015260640161052b565b6000816106ab8433610ace565b6106b59190611a6b565b90506106c383336000610b87565b6106ce833383610b87565b6106d88383611007565b505050565b6001600160a01b0381166000908152600760205260408120546103b1565b610703610cab565b61072057604051639f7f092560e01b815260040160405180910390fd5b6103e581611234565b60606006805461031a90611a0e565b3360008181526003602090815260408083206001600160a01b0387168452909152812054909190838110156107bd5760405162461bcd60e51b815260206004820152602560248201527f45524332303a2064656372656173656420616c6c6f77616e63652062656c6f77604482015264207a65726f60d81b606482015260840161052b565b6104018286868403610b87565b6000336103ab818585610da4565b60608167ffffffffffffffff8111156107f3576107f36117ca565b60405190808252806020026020018201604052801561082657816020015b60608152602001906001900390816108115790505b509050336000805b8481101561093f5781156108ad5761088b3087878481811061085257610852611a7e565b90506020028101906108649190611a94565b8660405160200161087793929190611ae2565b60405160208183030381529060405261130f565b84828151811061089d5761089d611a7e565b602002602001018190525061092d565b61090f308787848181106108c3576108c3611a7e565b90506020028101906108d59190611a94565b8080601f01602080910402602001604051908101604052809392919081815260200183838082843760009201919091525061130f92505050565b84828151811061092157610921611a7e565b60200260200101819052505b8061093781611b08565b91505061082e565b50505092915050565b834211156109985760405162461bcd60e51b815260206004820152601d60248201527f45524332305065726d69743a206578706972656420646561646c696e65000000604482015260640161052b565b60007f00000000000000000000000000000000000000000000000000000000000000008888886109c78c61133b565b6040805160208101969096526001600160a01b0394851690860152929091166060840152608083015260a082015260c0810186905260e0016040516020818303038152906040528051906020012090506000610a44610a2461040c565b8360405161190160f01b8152600281019290925260228201526042902090565b90506000610a5482878787611363565b9050896001600160a01b0316816001600160a01b031614610ab75760405162461bcd60e51b815260206004820152601e60248201527f45524332305065726d69743a20696e76616c6964207369676e61747572650000604482015260640161052b565b610ac28a8a8a610b87565b50505050505050505050565b6001600160a01b03918216600090815260036020908152604080832093909416825291909152205490565b60008054610b0690611a0e565b80601f0160208091040260200160405190810160405280929190818152602001828054610b3290611a0e565b8015610b7f5780601f10610b5457610100808354040283529160200191610b7f565b820191906000526020600020905b815481529060010190602001808311610b6257829003601f168201915b505050505081565b6001600160a01b038316610be95760405162461bcd60e51b8152602060048201526024808201527f45524332303a20617070726f76652066726f6d20746865207a65726f206164646044820152637265737360e01b606482015260840161052b565b6001600160a01b038216610c4a5760405162461bcd60e51b815260206004820152602260248201527f45524332303a20617070726f766520746f20746865207a65726f206164647265604482015261737360f01b606482015260840161052b565b6001600160a01b0383811660008181526003602090815260408083209487168084529482529182902085905590518481527f8c5be1e5ebec7d5bd14f71427d1e84f3dd0314c0f7b2291e5b200ac8c7c3b925910160405180910390a3505050565b6000610cbf6001546001600160a01b031690565b6001600160a01b0316336001600160a01b031614905090565b600180546001600160a01b038381166001600160a01b0319831681179093556040519116919082907f8292fce18fa69edf4db7b94ea2e58241df0ae57f97e0a6c9b29067028bf92d7690600090a35050565b6000610d368484610ace565b90506000198114610d9e5781811015610d915760405162461bcd60e51b815260206004820152601d60248201527f45524332303a20696e73756666696369656e7420616c6c6f77616e6365000000604482015260640161052b565b610d9e8484848403610b87565b50505050565b6001600160a01b038316610e085760405162461bcd60e51b815260206004820152602560248201527f45524332303a207472616e736665722066726f6d20746865207a65726f206164604482015264647265737360d81b606482015260840161052b565b6001600160a01b038216610e6a5760405162461bcd60e51b815260206004820152602360248201527f45524332303a207472616e7366657220746f20746865207a65726f206164647260448201526265737360e81b606482015260840161052b565b6001600160a01b03831660009081526002602052604090205481811015610ee25760405162461bcd60e51b815260206004820152602660248201527f45524332303a207472616e7366657220616d6f756e7420657863656564732062604482015265616c616e636560d01b606482015260840161052b565b6001600160a01b03808516600090815260026020526040808220858503905591851681529081208054849290610f19908490611a58565b92505081905550826001600160a01b0316846001600160a01b03167fddf252ad1be2c89b69c2b068fc378daa952ba7f163c4a11628f55a4df523b3ef84604051610f6591815260200190565b60405180910390a3610d9e565b60007f8b73c3c69bb8fe3d512ecc4cf759cc79239f7b179b0ffacaa9a75d522b39400f610f9d61030b565b80516020918201206040805192830193909352918101919091527fc89efdaa54c0f20c7adf612882df0950f5a951637e0307cdcb4c672f298b8bc660608201524660808201523060a082015260c00160405160208183030381529060405280519060200120905090565b6001600160a01b0382166110675760405162461bcd60e51b815260206004820152602160248201527f45524332303a206275726e2066726f6d20746865207a65726f206164647265736044820152607360f81b606482015260840161052b565b6001600160a01b038216600090815260026020526040902054818110156110db5760405162461bcd60e51b815260206004820152602260248201527f45524332303a206275726e20616d6f756e7420657863656564732062616c616e604482015261636560f01b606482015260840161052b565b6001600160a01b038316600090815260026020526040812083830390556004805484929061110a908490611a6b565b90915550506040518281526000906001600160a01b038516907fddf252ad1be2c89b69c2b068fc378daa952ba7f163c4a11628f55a4df523b3ef9060200160405180910390a3505050565b6001600160a01b0382166111ab5760405162461bcd60e51b815260206004820152601f60248201527f45524332303a206d696e7420746f20746865207a65726f206164647265737300604482015260640161052b565b80600460008282546111bd9190611a58565b90915550506001600160a01b038216600090815260026020526040812080548392906111ea908490611a58565b90915550506040518181526001600160a01b038316906000907fddf252ad1be2c89b69c2b068fc378daa952ba7f163c4a11628f55a4df523b3ef9060200160405180910390a35050565b600080805461124290611a0e565b80601f016020809104026020016040519081016040528092919081815260200182805461126e90611a0e565b80156112bb5780601f10611290576101008083540402835291602001916112bb565b820191906000526020600020905b81548152906001019060200180831161129e57829003601f168201915b5050505050905081600090816112d19190611b6f565b507fc9c7c3fe08b88b4df9d4d47ef47d2c43d55c025a0ba88ca442580ed9e7348a168183604051611303929190611c2f565b60405180910390a15050565b60606113348383604051806060016040528060278152602001611c906027913961138d565b9392505050565b6001600160a01b03811660009081526007602052604090208054600181018255905b50919050565b600080600061137487878787611405565b91509150611381816114c9565b5090505b949350505050565b6060600080856001600160a01b0316856040516113aa9190611c5d565b600060405180830381855af49150503d80600081146113e5576040519150601f19603f3d011682016040523d82523d6000602084013e6113ea565b606091505b50915091506113fb86838387611613565b9695505050505050565b6000807f7fffffffffffffffffffffffffffffff5d576e7357a4501ddfe92f46681b20a083111561143c57506000905060036114c0565b6040805160008082526020820180845289905260ff881692820192909252606081018690526080810185905260019060a0016020604051602081039080840390855afa158015611490573d6000803e3d6000fd5b5050604051601f1901519150506001600160a01b0381166114b9576000600192509250506114c0565b9150600090505b94509492505050565b60008160048111156114dd576114dd611c79565b036114e55750565b60018160048111156114f9576114f9611c79565b036115465760405162461bcd60e51b815260206004820152601860248201527f45434453413a20696e76616c6964207369676e61747572650000000000000000604482015260640161052b565b600281600481111561155a5761155a611c79565b036115a75760405162461bcd60e51b815260206004820152601f60248201527f45434453413a20696e76616c6964207369676e6174757265206c656e67746800604482015260640161052b565b60038160048111156115bb576115bb611c79565b036103e55760405162461bcd60e51b815260206004820152602260248201527f45434453413a20696e76616c6964207369676e6174757265202773272076616c604482015261756560f01b606482015260840161052b565b6060831561168257825160000361167b576001600160a01b0385163b61167b5760405162461bcd60e51b815260206004820152601d60248201527f416464726573733a2063616c6c20746f206e6f6e2d636f6e7472616374000000604482015260640161052b565b5081611385565b61138583838151156116975781518083602001fd5b8060405162461bcd60e51b815260040161052b9190611701565b60005b838110156116cc5781810151838201526020016116b4565b50506000910152565b600081518084526116ed8160208601602086016116b1565b601f01601f19169290920160200192915050565b60208152600061133460208301846116d5565b80356001600160a01b038116811461172b57600080fd5b919050565b6000806040838503121561174357600080fd5b61174c83611714565b946020939093013593505050565b60006020828403121561176c57600080fd5b61133482611714565b60008060006060848603121561178a57600080fd5b61179384611714565b92506117a160208501611714565b9150604084013590509250925092565b6000602082840312156117c357600080fd5b5035919050565b634e487b7160e01b600052604160045260246000fd5b6000602082840312156117f257600080fd5b813567ffffffffffffffff8082111561180a57600080fd5b818401915084601f83011261181e57600080fd5b813581811115611830576118306117ca565b604051601f8201601f19908116603f01168101908382118183101715611858576118586117ca565b8160405282815287602084870101111561187157600080fd5b826020860160208301376000928101602001929092525095945050505050565b600080602083850312156118a457600080fd5b823567ffffffffffffffff808211156118bc57600080fd5b818501915085601f8301126118d057600080fd5b8135818111156118df57600080fd5b8660208260051b85010111156118f457600080fd5b60209290920196919550909350505050565b6000602080830181845280855180835260408601915060408160051b870101925083870160005b8281101561195b57603f198886030184526119498583516116d5565b9450928501929085019060010161192d565b5092979650505050505050565b600080600080600080600060e0888a03121561198357600080fd5b61198c88611714565b965061199a60208901611714565b95506040880135945060608801359350608088013560ff811681146119be57600080fd5b9699959850939692959460a0840135945060c09093013592915050565b600080604083850312156119ee57600080fd5b6119f783611714565b9150611a0560208401611714565b90509250929050565b600181811c90821680611a2257607f821691505b60208210810361135d57634e487b7160e01b600052602260045260246000fd5b634e487b7160e01b600052601160045260246000fd5b808201808211156103b1576103b1611a42565b818103818111156103b1576103b1611a42565b634e487b7160e01b600052603260045260246000fd5b6000808335601e19843603018112611aab57600080fd5b83018035915067ffffffffffffffff821115611ac657600080fd5b602001915036819003821315611adb57600080fd5b9250929050565b8284823760609190911b6bffffffffffffffffffffffff19169101908152601401919050565b600060018201611b1a57611b1a611a42565b5060010190565b601f8211156106d857600081815260208120601f850160051c81016020861015611b485750805b601f850160051c820191505b81811015611b6757828155600101611b54565b505050505050565b815167ffffffffffffffff811115611b8957611b896117ca565b611b9d81611b978454611a0e565b84611b21565b602080601f831160018114611bd25760008415611bba5750858301515b600019600386901b1c1916600185901b178555611b67565b600085815260208120601f198616915b82811015611c0157888601518255948401946001909101908401611be2565b5085821015611c1f5787850151600019600388901b60f8161c191681555b5050505050600190811b01905550565b604081526000611c4260408301856116d5565b8281036020840152611c5481856116d5565b95945050505050565b60008251611c6f8184602087016116b1565b9190910192915050565b634e487b7160e01b600052602160045260246000fdfe416464726573733a206c6f772d6c6576656c2064656c65676174652063616c6c206661696c6564a2646970667358221220a36b082ec86847f45b51218ae5e922c9393a75d319fdf8b4a1edf66aa9734d8d64736f6c63430008110033",
  "linkReferences": {},
  "deployedLinkReferences": {}
}